:020000040040BA
:1000000010350020D50C4000D30C4000D30C40002C
:10001000D30C4000D30C4000D30C40000000000083
:10002000000000000000000000000000D30C4000B1
:10003000D30C400000000000D30C400045014000FC
:10004000D30C4000D30C4000D30C4000D30C400034
:10005000D30C4000D30C4000D30C4000D30C400024
:10006000D30C4000E502400000000000C908400039
:10007000DD084000F1084000D30C4000D30C4000E4
:100080000000000000000000D30C4000D30C400032
:10009000D30C4000D30C4000D30C4000D30C4000E4
:1000A000D30C4000D30C4000D30C4000D30C4000D4
:1000B000D30C4000D30C4000D30C4000D30C4000C4
:1000C000D30C4000D30C4000D30C400010B5054CBD
:1000D000237833B9044B13B10448AFF300800123F4
:1000E000237010BD3C0400200000000044144000B8
:1000F0000C4B43B10C480D4910B5AFF300800C48D0
:10010000036823B910BD0A48036833B97047094B27
:10011000002BF7D0BDE810401847064B002BF5D058
:10012000184700BF000000004414400040040020B5
:10013000441440000000000008B5014B984708BD7A
:10014000050440007047000038B518B909200A4B73
:10015000984738BD014643F2B062002343F2AF64D2
:1001600000250648E0FB014520462946044CA047EF
:10017000014B984738BD00BF01000020000E270743
:100180007D0F400010B5054B98470B20044CA0474D
:100190000C20A0470D20A04710BD00BF69044000FF
:1001A000310A40000F4B4FF400021A61C3F8A0203F
:1001B0004FF480121A61C3F8A02002F18042A2F528
:1001C000F9324FF480311161C2F8A0104FF480026F
:1001D0001A61C3F8A0204FF400221A61C3F8A020CE
:1001E000704700BF00120E4004281BD8DFE800F063
:1001F0000312141618005722530903F5001303F2D3
:1002000007735B0281B102F01F02012101FA02F2C1
:100210005A6370475422EFE71022EDE75622EBE7CE
:100220005322E9E70022E7E702F01F02012101FA69
:1002300002F21A637047000010B50020054B984782
:10024000054CA0470028FCD000210448044B9847E7
:1002500010BD00BF690940008D09400060140E40C8
:10026000850A400070B582B00446084D0023009313
:10027000C368026941692846054EB0472368626831
:10028000A1682846034CA04702B070BD60140E4020
:10029000FD0B4000F50A4000F0B585B0044604AD02
:1002A000002345F8043D0A4E0346021D00F10801F3
:1002B0003046084FB847009504F10C0304F11002D2
:1002C00004F114013046044CA04705B0F0BD00BF56
:1002D00060140E409B0A4000890B40007047704735
:1002E0007047000000B583B009480A4B984710F0EA
:1002F000010F02D103B05DF804FB0DF107010448C2
:10030000054B9847054B1B689DF807009847F1E798
:1003100000080E40B50C4000B90C40005804002005
:100320002DE9F843012100201A4CA047012108467D
:10033000A04701210220A04701210320A04701215D
:100340000420A0470027B946DFF85880124E3946EE
:100350004846C0475F247C252846B047013CFBD176
:100360000137042FF3D1C8200C4B984700210846D1
:10037000084CA04700210120A04700210220A047EF
:1003800000210320A04700210420A047044B9847E8
:10039000BDE8F883E9014000DD024000490140006A
:1003A000DF024000E102400030B587B0094B9847BA
:1003B000094B98476C46094D0FCD0FC495E80300D3
:1003C00084E803006846064B9847064B984707B0F9
:1003D00030BD00BFA501400039024000FC134000C1
:1003E000650240002103400008B5034B9847034BCA
:1003F0009847034B984708BD3901400085014000EC
:10040000A903400010B50E480E4B98473E2100202E
:100410000D4B98470D4CA0470028FCD00C4B98473B
:100420000C4A0D4B9A620D4CA0470028FCD01020BE
:100430000B4B98470B4B98470148024B984710BD10
:10044000000E2707910E4000AD094000010A400050
:10045000110A4000013F132000040E40210A400011
:1004600005094000810D4000F8B53848384B9847E1
:100470000B20384CA0470C20A0470D20A047364B3E
:100480004FF400021A631A61C3F8A020334C04250C
:100490006561C4F8A0506566C4F8905065656562F2
:1004A000C4F88050226F22F004022267626F22F0AB
:1004B000040262674FF480121A631A61C3F8A02025
:1004C0004FF4803222632261C4F8A0204FF48002EE
:1004D0001A631A61C3F8A0204FF000620C21204873
:1004E000204B9847204F39460320204EB0473946CD
:1004F0002846B04739460C20B04739460D20B04752
:1005000039460E20B0474FF080510920B0471849B6
:100510000A20B04707F1405739465520B0473946C1
:100520005F20B04713494C20B0476566C4F890502F
:1005300065656562C4F88050236F23F00403236768
:10054000636F23F004036367F8BD00BF50140E40CF
:10055000CB0C4000310A400000120E40000E0E404D
:1005600000100E40890740000100000869064000A5
:1005700001000010010000284264B1F1C05F39D0D1
:1005800013D8B1F1006F25D0B1F1805F0AD1036FAC
:1005900013430367436F416F0B4023EA0203436732
:1005A000426070470029FBD17047B1F1205F20D035
:1005B00009D8B1F1005FF3D1036F13430367436FB1
:1005C00013434367ECE7B1F1405F12D0B1F1605FD4
:1005D0000FD0E5E710B4016F046FD34321401C46F0
:1005E00019400167436F416F0B40234043674260EE
:1005F00010BC7047036F016F0B4023EA02030367CF
:10060000436F13434367CBE7416412F0010F14BFFC
:100610004166016612F00A0F14BF0162416212F0D6
:10062000020F07D112F0080F18BFC0F88410416103
:1006300001607047C0F88010F9E710B4019C416474
:1006400044B9016643B1016542B94163016101608A
:1006500010BC70474166F5E74165F5E70163F5E7D2
:10066000C06C7047806C704770B582B00D4643090E
:1006700003F5001303F207735C0201F0F043B3F1DA
:10068000005F53D00AD8B3F1805F2DD0B3F1C05FC3
:100690003BD0B3F1006F15D0002023E0B3F1405FF1
:1006A00055D0B3F1605F52D0B3F1205FF4D100F0C8
:1006B0001F0101262A4606FA01F120462F4B9847D2
:1006C00030460FE000F01F000126864032464FF012
:1006D000006120462A4B984715F0010F14BF66664B
:1006E0002666012002B070BD00F01F000126864082
:1006F00032464FF080512046214B984715F0010FAC
:1007000014BF666626660120ECE700F01F00012694
:10071000864032464FF0C0512046194B984715F09D
:10072000010F14BF666626660120DBE700F01F009C
:100730000126864032464FF000512046104B984724
:1007400015F0010F14BF666626660120CAE705F0A2
:10075000605200F01F01012605EA06030093C5F36D
:100760008003B2F1605F14BF0022012206FA01F19A
:100770002046044CA0473046B4E700BF09064000BD
:10078000790540003B06400070B582B005460E4634
:10079000144602F0F043B3F1005F3DD00AD8B3F144
:1007A000805F21D0B3F1C05F2AD0B3F1006F0ED0CB
:1007B000002017E0B3F1405F3AD0B3F1605F37D06B
:1007C000B3F1205FF4D1234B984701200AE00A4699
:1007D0004FF00061204B984714F0010F14BF6E6674
:1007E0002E66012002B070BD0A464FF080511A4BB0
:1007F000984714F0010F14BF6E662E660120F1E7D2
:100800000A464FF0C051144B984714F0010F14BF23
:100810006E662E660120E5E70A464FF000510E4B4A
:10082000984714F0010F14BF6E662E660120D9E7B9
:1008300004F0605204F001030093C4F38003B2F1AA
:10084000605F14BF0022012231462846034CA047B6
:100850000120C7E709064000790540003B0640003B
:100860002DE9F84381460F46124B98470546484606
:10087000114B9847054013D0104C04F1600603E07B
:10088000B4420DD010345DB12068B842F8D161682F
:100890002942F5D0E3689847636825EA0305EFE746
:1008A000074B1B6823B1074B1B680BB148469847A1
:1008B000BDE8F88361064000650640005C04002046
:1008C000D0040020CC04002008B50B210148024BC5
:1008D000984708BD000E0E406108400008B50C2185
:1008E0000148024B984708BD00100E4061084000C7
:1008F00008B50D210148024B984708BD00120E4073
:1009000061084000174A136B23F07003184310630B
:10091000936E13F0080F0AD14FF4006311498A6EE9
:1009200012F0080F03D1013BF9D1012070470D4AA5
:10093000136B23F0030343F002031363936E13F06E
:10094000080F0AD14FF4006306498A6E12F0080FAF
:1009500005D1013BF9D101207047002070470020EC
:10096000704700BF00040E40012803D0054A064B23
:100970001A607047044A936843F0254343F4801398
:100980009360F3E7080000A510140E40054B5B6967
:1009900013F0800F1DBF044B986EC0F3C0100020F1
:1009A000704700BF10140E4000040E40C8B9114A31
:1009B000136A090289B223F45C1323F0030343F49E
:1009C0005C1343F001030B431362936E13F0010FAA
:1009D000FBD0084A136A43F09B7343F480331362DD
:1009E000704704490B6A044A1A40044B13430B62D4
:1009F000704700BF00040E40FCFFC8FE0200370134
:100A0000024B986E00F48030704700BF00040E4027
:100A10004FF00052014B9A62704700BF00040E4035
:100A2000024B986E00F00200704700BF00040E40B9
:100A300022281ED81F280CD8114B9A690123834005
:100A4000934318D0012303FA00F00D4B18610020E6
:100A5000704720380A4BD3F8082101238340934381
:100A60000BD0012303FA00F0054BC3F8000100206E
:100A7000704701207047002070470020704700BF7A
:100A800000040E4021B9436823F00103436070471E
:100A9000436843F001034360704730B4856884685D
:100AA000A54203D085688468AC42FBD161B1C4F330
:100AB000015000EB8005C4F3034000EB450014F443
:100AC000800F18BF0C30086042B1C4F3023101EB53
:100AD0008101C4F3032000EB4101116043B1C4F371
:100AE000021202EB820204F00F0404EB42041C60C9
:100AF00030BC7047F0B4446814F0010F05D00C29E5
:100B00003DD90C394FF4800700E000271D4CA4FBB1
:100B10000356F60806EB8605A3EB450343EA0613E6
:100B2000A4FB0265ED0843EA053305EB8505A2EB5E
:100B3000450543EA05233B43A4FB0142D20843EAAF
:100B4000025302EB8202A1EB420143EA01418369B5
:100B500013F0040FFBD0036843F0010303608369C3
:100B600013F0010FFBD00123C3618160036823F000
:100B700001030360C06A00F00100F0BC7047002769
:100B8000C4E700BFCDCCCCCCF0B4049EC568C4682B
:100B9000A54203D0C568C468AC42FBD199B1C4F387
:100BA000033000EB8000C4F3032707EB4007C4F3D6
:100BB000021000EB800504F00F0000EB45006425F7
:100BC00005FB0070086042B1C4F300508100084486
:100BD000C4F3034101EB4001116043B1C4F301725E
:100BE00002EB8202C4F3036101EB42021A6016B108
:100BF000C4F342543460F0BC7047000070B42A4D16
:100C0000A5FB0346F608039C640544EA067406EB5C
:100C10008606A3EB460344EA0363A5FB0264E408EB
:100C200043EA045304EB8404A2EB440243EA024285
:100C30001E4BA3FB01439B0942EA03121C4BA3FB7F
:100C400001435B09A5FB0364E40804EB8404A3EB04
:100C500044031A43A5FB0143DB0803EB8304A1EB28
:100C6000440142EA0122A5FB0315ED0805EB8505C9
:100C7000A3EB450542EA0532836913F0040FFBD06C
:100C8000036843F002030360836913F0010FFBD094
:100C90000123C361C260036823F002030360C06ADA
:100CA00000F0020070BC7047CDCCCCCCD34D6210AC
:100CB0001F85EB5140697047436913F0010F1DBF59
:100CC00083690B700020012070474FF4004343609C
:100CD0007047FEE708B5214B214A9A4228D9214B9B
:100CE0001E4A9A420CD2013B9B1A23F003030433A1
:100CF00013441B4951F8040B42F8040B9A42F9D1F2
:100D000000BF194B194A9A420AD2013B9B1A23F0A1
:100D1000030304331344002142F8041B9A42FBD11D
:100D2000134B144A9A60144B9847144B9847FEE7AC
:100D30000A4B0B4A9A42E3D20A4B0848181A11464A
:100D4000043A02440028DBD0C1F1040152F804093E
:100D500043F8040DCA42F9D1D2E700BF00000020D9
:100D6000441440003C040020100500203C040020F6
:100D700000ED00E0000040008D124000250F400013
:100D80003C4B1B6B03F00303032B0ED8DFE803F08F
:100D9000021C3838384B5B6913F0800F14BF4FF4D6
:100DA00000424FF4FA42354B1A60324B1B6B03F092
:100DB0007003702B55D02F4B1A6B3049C2F30212BF
:100DC0000B68D3400B6070472A4B1B6A13F0807F7F
:100DD00003D02B4A294B1A60E7E72A4A274B1A60AF
:100DE000244B1B6A03F07003102B05D0202BDCD1A1
:100DF000234A224B1A60D8E7234A204B1A60D4E7D3
:100E00001C4B1B6A13F0807F18D01D4A1B4B1A60C5
:100E1000184B1B6B03F00303022B164A07BF916AA2
:100E2000926AD16AD26A1548C1F30A41036801FB8C
:100E30000333D2B2B3FBF2F30360B6E7114A0F4BB0
:100E40001A600C4B1B6A03F07003102B05D0202B8B
:100E5000DED10B4A094B1A60DAE70B4A074B1A60DE
:100E6000D6E7064A13680949A1FB03135B08136020
:100E7000704700BF00040E4010140E400C0000200C
:100E8000001BB70000093D0000127A00ABAAAAAA15
:100E90001A4B984214D91A4B984219D9194B9842B7
:100EA0001DD9194B984221D9184B984294BF4FF045
:100EB0000423174B174A136002F500721360704742
:100EC0004FF08063134A136002F50072136070479D
:100ED000114B104A136002F50072136070470F4BFC
:100EE0000C4A136002F50072136070470C4B094AFC
:100EF000136002F500721360704700BFFF2C3101D0
:100F0000FF596202FF869303FFB3C404FFE0F505B7
:100F100000050004000A0E40000100040002000465
:100F20000003000408B5104B9847104800230360E5
:100F30001E234360142383601B23C3600B230361C0
:100F400040F2E17343610A4B9847084C094E0A4D41
:100F50002046B047236813F0010F0CBF0121002188
:100F60000220A847F4E700BFE9034000D4040020B2
:100F70006502400099024000E901400053B94AB9B6
:100F8000002908BF00281CBF4FF0FF314FF0FF3091
:100F900000F07AB9ADF1080C6DE904CE00F006F866
:100FA000DDF804E0DDE9022304B070472DE9F047E5
:100FB0008C460D460446089E002B51D18A421746A6
:100FC0006DD9B2FA82FEBEF1000F0BD0CEF1200C2B
:100FD00001FA0EF520FA0CFC02FA0EF74CEA050CA9
:100FE00000FA0EF44FEA174A250CBCFBFAF81FFA78
:100FF00087F90AFB18CC45EA0C4508FB09F3AB421C
:101000000AD9ED1908F1FF3280F02381AB4240F29A
:101010002081A8F102083D44ED1AA4B2B5FBFAF014
:101020000AFB105544EA054400FB09F9A14509D91A
:10103000E41900F1FF3380F00A81A14540F20781F5
:1010400002383C44A4EB090440EA08400021002E89
:1010500061D024FA0EF4002334607360BDE8F08799
:101060008B4207D9002E54D0002186E82100084683
:10107000BDE8F087B3FA83F1002940F08E80AB42DF
:1010800002D3824200F2FA80841A65EB0305012044
:10109000AC46002E3FD086E81010BDE8F08712B9AC
:1010A0000127B7FBF2F7B7FA87FEBEF1000F34D184
:1010B000EB1B3A0C1FFA87FC0121B3FBF2F8250C5D
:1010C00002FB183345EA03450CFB08F3AB4207D992
:1010D000ED1908F1FF3002D2AB4200F2D180804618
:1010E000ED1AA3B2B5FBF2F002FB105543EA05443A
:1010F0000CFB00FCA44507D9E41900F1FF3302D230
:10110000A44500F2B8801846A4EB0C0440EA08405D
:101110009DE731463046BDE8F087CEF1200405FA60
:101120000EF307FA0EF720FA04F83A0C25FA04F445
:1011300048EA0308B4FBF2F14FEA184502FB1144F8
:101140001FFA87FC45EA044501FB0CF3AB4200FAA9
:101150000EF409D9ED1901F1FF3080F08A80AB421D
:1011600040F2878002393D44EB1A1FFA88F5B3FB41
:10117000F2F002FB103345EA034500FB0CF3AB42EF
:1011800007D9ED1900F1FF386FD2AB426DD90238A3
:101190003D44EB1A40EA01418FE7C1F1200722FAF2
:1011A00007F88B4005FA01F448EA030320FA07FE2A
:1011B0004FEA134CFD404EEA040EB5FBFCF94FEA32
:1011C0001E440CFB19551FFA83F844EA054509FB38
:1011D00008F4AC4202FA01F200FA01FA08D9ED185B
:1011E00009F1FF3043D2AC4241D9A9F102091D44B3
:1011F0002D1B1FFA8EFEB5FBFCF00CFB10554EEAC2
:10120000054400FB08F8A04507D9E41800F1FF35B4
:1012100029D2A04527D902381C4440EA0940A4EB52
:101220000804A0FB02894C45C6464D4615D312D092
:1012300056B1BAEB0E0364EB050404FA07F7CB4092
:101240001F43CC40376074600021BDE8F08718462A
:10125000F8E69046E0E6C245EAD2B8EB020E69EB4A
:1012600003050138E4E72846D7E7404691E7814681
:10127000BEE7014678E702383C4445E7084608E700
:10128000A8F102083D442BE7704700BF70B50F4E30
:101290000F4D761BB61018BF002405D0013455F849
:1012A000043B9847A642F9D10A4E0B4D761B00F03D
:1012B000B3F8B61018BF002406D0013455F8043B2B
:1012C0009847A642F9D170BD70BD00BF24144000FC
:1012D000241440002C14400024144000024B13B18D
:1012E000024800F005B8704700000000FD12400001
:1012F000002301461A46184600F01EB838B50A4CBD
:101300000A4D641BA4100AD004F18043013B05EB95
:101310008305013C55F804399847002CF9D1BDE804
:10132000384000F083B800BF3C144000381440003F
:10133000704700BF704700BF2DE9F8432C4D0646AB
:10134000286898460F469146FFF7F2FF294B1C6824
:10135000D4F84831002B3ED05A681F2A1CDC02F119
:10136000010E76B103EB82010124C1F88890D3F815
:10137000880194402043022EC3F88801C1F80881F7
:1013800023D00232C3F804E0286843F82270FFF744
:10139000D1FF0020BDE8F883174B0BB34FF4C870A2
:1013A000AFF300800346D8B1D4F848210260002191
:1013B00041600A46C4F848014FF0010EC0F8881198
:1013C000C0F88C11002EDCD0CCE7D3F88C110C4384
:1013D000C3F88C41D5E704F5A673C4F84831BBE7E0
:1013E0002868FFF7A7FF4FF0FF30BDE8F88300BF84
:1013F0003804002014144000000000000000000029
:101400000D000000000000000E00000007000000BA
:10141000C707000010000020F8B500BFF8BC08BCEA
:101420009E467047DD124000F1004000F8B500BF55
:0C143000F8BC08BC9E467047CD00400090
:08143C0070FBFF7F01000000BE
:10144400BFF35F8F0138FBD17047000000093D00F6
:1014540000000000FC02002064030020CC030020F4
:101464000000000000000000000000000000000078
:101474000000000000000000000000000000000068
:101484000000000000000000000000000000000058
:101494000000000000000000000000000000000048
:1014A4000000000000000000000000000000000038
:1014B4000000000000000000000000000000000028
:1014C4000000000000000000000000000000000018
:1014D4000000000000000000000000000000000008
:1014E40000000000000000000000000000000000F8
:1014F40000000000000000000100000000000000E7
:101504000E33CDAB34126DE6ECDE05000B000000AB
:1015140000000000000000000000000000000000C7
:1015240000000000000000000000000000000000B7
:1015340000000000000000000000000000000000A7
:101544000000000000000000000000000000000097
:0C1874000000000000000000EC04002058
:0400000500400CD5D6
:00000001FF
